{
    "_format": "hh-sol-artifact-1",
    "contractName": "BlindAuction",
    "sourceName": "examples/BlindAuction.sol",
    "abi": [
        {
            "inputs": [
                {
                    "internalType": "address",
                    "name": "_beneficiary",
                    "type": "address"
                },
                {
                    "internalType": "contract EncryptedERC20",
                    "name": "_tokenContract",
                    "type": "address"
                },
                {
                    "internalType": "uint256",
                    "name": "biddingTime",
                    "type": "uint256"
                },
                {
                    "internalType": "bool",
                    "name": "isStoppable",
                    "type": "bool"
                }
            ],
            "stateMutability": "nonpayable",
            "type": "constructor"
        },
        {
            "inputs": [],
            "name": "InvalidShortString",
            "type": "error"
        },
        {
            "inputs": [
                {
                    "internalType": "string",
                    "name": "str",
                    "type": "string"
                }
            ],
            "name": "StringTooLong",
            "type": "error"
        },
        {
            "inputs": [
                {
                    "internalType": "uint256",
                    "name": "time",
                    "type": "uint256"
                }
            ],
            "name": "TooEarly",
            "type": "error"
        },
        {
            "inputs": [
                {
                    "internalType": "uint256",
                    "name": "time",
                    "type": "uint256"
                }
            ],
            "name": "TooLate",
            "type": "error"
        },
        {
            "anonymous": false,
            "inputs": [],
            "name": "EIP712DomainChanged",
            "type": "event"
        },
        {
            "anonymous": false,
            "inputs": [
                {
                    "indexed": false,
                    "internalType": "address",
                    "name": "who",
                    "type": "address"
                }
            ],
            "name": "Winner",
            "type": "event"
        },
        {
            "inputs": [],
            "name": "auctionEnd",
            "outputs": [],
            "stateMutability": "nonpayable",
            "type": "function"
        },
        {
            "inputs": [],
            "name": "beneficiary",
            "outputs": [
                {
                    "internalType": "address",
                    "name": "",
                    "type": "address"
                }
            ],
            "stateMutability": "view",
            "type": "function"
        },
        {
            "inputs": [
                {
                    "internalType": "bytes",
                    "name": "encryptedValue",
                    "type": "bytes"
                }
            ],
            "name": "bid",
            "outputs": [],
            "stateMutability": "nonpayable",
            "type": "function"
        },
        {
            "inputs": [],
            "name": "bidCounter",
            "outputs": [
                {
                    "internalType": "uint256",
                    "name": "",
                    "type": "uint256"
                }
            ],
            "stateMutability": "view",
            "type": "function"
        },
        {
            "inputs": [
                {
                    "internalType": "address",
                    "name": "",
                    "type": "address"
                }
            ],
            "name": "bids",
            "outputs": [
                {
                    "internalType": "euint32",
                    "name": "",
                    "type": "uint256"
                }
            ],
            "stateMutability": "view",
            "type": "function"
        },
        {
            "inputs": [],
            "name": "claim",
            "outputs": [],
            "stateMutability": "nonpayable",
            "type": "function"
        },
        {
            "inputs": [
                {
                    "internalType": "bytes32",
                    "name": "publicKey",
                    "type": "bytes32"
                },
                {
                    "internalType": "bytes",
                    "name": "signature",
                    "type": "bytes"
                }
            ],
            "name": "doIHaveHighestBid",
            "outputs": [
                {
                    "internalType": "bytes",
                    "name": "",
                    "type": "bytes"
                }
            ],
            "stateMutability": "view",
            "type": "function"
        },
        {
            "inputs": [],
            "name": "eip712Domain",
            "outputs": [
                {
                    "internalType": "bytes1",
                    "name": "fields",
                    "type": "bytes1"
                },
                {
                    "internalType": "string",
                    "name": "name",
                    "type": "string"
                },
                {
                    "internalType": "string",
                    "name": "version",
                    "type": "string"
                },
                {
                    "internalType": "uint256",
                    "name": "chainId",
                    "type": "uint256"
                },
                {
                    "internalType": "address",
                    "name": "verifyingContract",
                    "type": "address"
                },
                {
                    "internalType": "bytes32",
                    "name": "salt",
                    "type": "bytes32"
                },
                {
                    "internalType": "uint256[]",
                    "name": "extensions",
                    "type": "uint256[]"
                }
            ],
            "stateMutability": "view",
            "type": "function"
        },
        {
            "inputs": [],
            "name": "endTime",
            "outputs": [
                {
                    "internalType": "uint256",
                    "name": "",
                    "type": "uint256"
                }
            ],
            "stateMutability": "view",
            "type": "function"
        },
        {
            "inputs": [
                {
                    "internalType": "bytes32",
                    "name": "publicKey",
                    "type": "bytes32"
                },
                {
                    "internalType": "bytes",
                    "name": "signature",
                    "type": "bytes"
                }
            ],
            "name": "getBid",
            "outputs": [
                {
                    "internalType": "bytes",
                    "name": "",
                    "type": "bytes"
                }
            ],
            "stateMutability": "view",
            "type": "function"
        },
        {
            "inputs": [],
            "name": "manuallyStopped",
            "outputs": [
                {
                    "internalType": "bool",
                    "name": "",
                    "type": "bool"
                }
            ],
            "stateMutability": "view",
            "type": "function"
        },
        {
            "inputs": [],
            "name": "objectClaimed",
            "outputs": [
                {
                    "internalType": "bool",
                    "name": "",
                    "type": "bool"
                }
            ],
            "stateMutability": "view",
            "type": "function"
        },
        {
            "inputs": [],
            "name": "stop",
            "outputs": [],
            "stateMutability": "nonpayable",
            "type": "function"
        },
        {
            "inputs": [],
            "name": "stoppable",
            "outputs": [
                {
                    "internalType": "bool",
                    "name": "",
                    "type": "bool"
                }
            ],
            "stateMutability": "view",
            "type": "function"
        },
        {
            "inputs": [],
            "name": "tokenContract",
            "outputs": [
                {
                    "internalType": "contract EncryptedERC20",
                    "name": "",
                    "type": "address"
                }
            ],
            "stateMutability": "view",
            "type": "function"
        },
        {
            "inputs": [],
            "name": "tokenTransferred",
            "outputs": [
                {
                    "internalType": "bool",
                    "name": "",
                    "type": "bool"
                }
            ],
            "stateMutability": "view",
            "type": "function"
        },
        {
            "inputs": [],
            "name": "withdraw",
            "outputs": [],
            "stateMutability": "nonpayable",
            "type": "function"
        }
    ],
    "bytecode": "0x6101606040526000600760176101000a81548160ff0219169083151502179055503480156200002d57600080fd5b506040516200389c3803806200389c8339818101604052810190620000539190620004cd565b6040518060400160405280601381526020017f417574686f72697a6174696f6e20746f6b656e000000000000000000000000008152506040518060400160405280600181526020017f31000000000000000000000000000000000000000000000000000000000000008152508181620000dc6000836200027560201b620010b91790919060201c565b6101208181525050620000ff6001826200027560201b620010b91790919060201c565b6101408181525050818051906020012060e08181525050808051906020012061010081815250504660a081815250506200013e620002d260201b60201c565b608081815250503073ffffffffffffffffffffffffffffffffffffffff1660c08173ffffffffffffffffffffffffffffffffffffffff16815250505050505083600360006101000a81548173ffffffffffffffffffffffffffffffffffffffff021916908373ffffffffffffffffffffffffffffffffffffffff16021790555082600760006101000a81548173ffffffffffffffffffffffffffffffffffffffff021916908373ffffffffffffffffffffffffffffffffffffffff16021790555081426200020d91906200056e565b6002819055506000600760146101000a81548160ff0219169083151502179055506000600760156101000a81548160ff021916908315150217905550600060068190555080600760166101000a81548160ff0219169083151502179055505050505062000aef565b60006020835110156200029b5762000293836200032f60201b60201c565b9050620002cc565b82620002b2836200039c60201b620010fd1760201c565b6000019081620002c3919062000819565b5060ff60001b90505b92915050565b60007f8b73c3c69bb8fe3d512ecc4cf759cc79239f7b179b0ffacaa9a75d522b39400f60e051610100514630604051602001620003149594939291906200093d565b60405160208183030381529060405280519060200120905090565b600080829050601f815111156200037f57826040517f305a27a900000000000000000000000000000000000000000000000000000000815260040162000376919062000a29565b60405180910390fd5b8051816200038d9062000a7f565b60001c1760001b915050919050565b6000819050919050565b600080fd5b600073ffffffffffffffffffffffffffffffffffffffff82169050919050565b6000620003d882620003ab565b9050919050565b620003ea81620003cb565b8114620003f657600080fd5b50565b6000815190506200040a81620003df565b92915050565b60006200041d82620003cb565b9050919050565b6200042f8162000410565b81146200043b57600080fd5b50565b6000815190506200044f8162000424565b92915050565b6000819050919050565b6200046a8162000455565b81146200047657600080fd5b50565b6000815190506200048a816200045f565b92915050565b60008115159050919050565b620004a78162000490565b8114620004b357600080fd5b50565b600081519050620004c7816200049c565b92915050565b60008060008060808587031215620004ea57620004e9620003a6565b5b6000620004fa87828801620003f9565b94505060206200050d878288016200043e565b9350506040620005208782880162000479565b92505060606200053387828801620004b6565b91505092959194509250565b7f4e487b7100000000000000000000000000000000000000000000000000000000600052601160045260246000fd5b60006200057b8262000455565b9150620005888362000455565b9250828201905080821115620005a357620005a26200053f565b5b92915050565b600081519050919050565b7f4e487b7100000000000000000000000000000000000000000000000000000000600052604160045260246000fd5b7f4e487b7100000000000000000000000000000000000000000000000000000000600052602260045260246000fd5b600060028204905060018216806200062b57607f821691505b602082108103620006415762000640620005e3565b5b50919050565b60008190508160005260206000209050919050565b60006020601f8301049050919050565b600082821b905092915050565b600060088302620006ab7fffffffffffffffffffffffffffffffffffffffffffffffffffffffffffffffff826200066c565b620006b786836200066c565b95508019841693508086168417925050509392505050565b6000819050919050565b6000620006fa620006f4620006ee8462000455565b620006cf565b62000455565b9050919050565b6000819050919050565b6200071683620006d9565b6200072e620007258262000701565b84845462000679565b825550505050565b600090565b6200074562000736565b620007528184846200070b565b505050565b5b818110156200077a576200076e6000826200073b565b60018101905062000758565b5050565b601f821115620007c957620007938162000647565b6200079e846200065c565b81016020851015620007ae578190505b620007c6620007bd856200065c565b83018262000757565b50505b505050565b600082821c905092915050565b6000620007ee60001984600802620007ce565b1980831691505092915050565b6000620008098383620007db565b9150826002028217905092915050565b6200082482620005a9565b67ffffffffffffffff81111562000840576200083f620005b4565b5b6200084c825462000612565b620008598282856200077e565b600060209050601f8311600181146200089157600084156200087c578287015190505b620008888582620007fb565b865550620008f8565b601f198416620008a18662000647565b60005b82811015620008cb57848901518255600182019150602085019450602081019050620008a4565b86831015620008eb5784890151620008e7601f891682620007db565b8355505b6001600288020188555050505b505050505050565b6000819050919050565b620009158162000900565b82525050565b620009268162000455565b82525050565b6200093781620003cb565b82525050565b600060a0820190506200095460008301886200090a565b6200096360208301876200090a565b6200097260408301866200090a565b6200098160608301856200091b565b6200099060808301846200092c565b9695505050505050565b600082825260208201905092915050565b60005b83811015620009cb578082015181840152602081019050620009ae565b60008484015250505050565b6000601f19601f8301169050919050565b6000620009f582620005a9565b62000a0181856200099a565b935062000a13818560208601620009ab565b62000a1e81620009d7565b840191505092915050565b6000602082019050818103600083015262000a458184620009e8565b905092915050565b600081519050919050565b6000819050602082019050919050565b600062000a76825162000900565b80915050919050565b600062000a8c8262000a4d565b8262000a988462000a58565b905062000aa58162000a68565b9250602082101562000ae85762000ae37fffffffffffffffffffffffffffffffffffffffffffffffffffffffffffffffff836020036008026200066c565b831692505b5050919050565b60805160a05160c05160e051610100516101205161014051612d5262000b4a6000396000610be301526000610baf01526000611d3001526000611d0f015260006118ad015260006119030152600061192c0152612d526000f3fe608060405234801561001057600080fd5b506004361061010b5760003560e01c806355a373d6116100a2578063a1dcde8511610071578063a1dcde8514610250578063b505bf5f1461026e578063bb4872de1461029e578063c5822c0d146102bc578063edfdc41c146102da5761010b565b806355a373d6146101ae57806362ea82db146101cc57806384b0196e146101fc5780639d89899c146102205761010b565b806331e37530116100de57806331e375301461016057806338af3eed1461017c5780633ccfd60b1461019a5780634e71d92d146101a45761010b565b806303f693541461011057806307da68f51461012e5780632a24f46c146101385780633197cbb614610142575b600080fd5b6101186102f8565b6040516101259190611ebf565b60405180910390f35b6101366102fe565b005b610140610334565b005b61014a610487565b6040516101579190611ebf565b60405180910390f35b61017a60048036038101906101759190611f49565b61048d565b005b61018461081c565b6040516101919190611fd7565b60405180910390f35b6101a2610842565b005b6101ac6109ef565b005b6101b6610b5e565b6040516101c39190612051565b60405180910390f35b6101e660048036038101906101e19190612098565b610b84565b6040516101f391906120f6565b60405180910390f35b610204610b9c565b60405161021797969594939291906122b3565b60405180910390f35b61023a60048036038101906102359190612363565b610c9e565b6040516102479190612418565b60405180910390f35b610258610efc565b6040516102659190612455565b60405180910390f35b61028860048036038101906102839190612363565b610f0f565b6040516102959190612418565b60405180910390f35b6102a6611080565b6040516102b39190612455565b60405180910390f35b6102c4611093565b6040516102d19190612455565b60405180910390f35b6102e26110a6565b6040516102ef9190612455565b60405180910390f35b60065481565b600760169054906101000a900460ff1661031757600080fd5b6001600760176101000a81548160ff021916908315150217905550565b6002544211158015610359575060001515600760179054906101000a900460ff161515145b1561039d576002546040517f2a35a3240000000000000000000000000000000000000000000000000000000081526004016103949190611ebf565b60405180910390fd5b600760159054906101000a900460ff16156103b757600080fd5b6001600760156101000a81548160ff021916908315150217905550600760009054906101000a900473ffffffffffffffffffffffffffffffffffffffff1673ffffffffffffffffffffffffffffffffffffffff1663a9059cbb600360009054906101000a900473ffffffffffffffffffffffffffffffffffffffff166004546040518363ffffffff1660e01b8152600401610453929190612470565b600060405180830381600087803b15801561046d57600080fd5b505af1158015610481573d6000803e3d6000fd5b50505050565b60025481565b600254421015806104b1575060011515600760179054906101000a900460ff161515145b156104f5576002546040517f691e56820000000000000000000000000000000000000000000000000000000081526004016104ec9190611ebf565b60405180910390fd5b600061054483838080601f016020809104026020016040519081016040528093929190818152602001838380828437600081840152601f19601f82011690508083019250505050505050611107565b90506000600560003373ffffffffffffffffffffffffffffffffffffffff1673ffffffffffffffffffffffffffffffffffffffff1681526020019081526020016000205490506105938161111b565b156106a95760006105a48284611128565b90506105b181848461113e565b600560003373ffffffffffffffffffffffffffffffffffffffff1673ffffffffffffffffffffffffffffffffffffffff1681526020019081526020016000208190555060006106008484611154565b9050600061060e838361116a565b9050600760009054906101000a900473ffffffffffffffffffffffffffffffffffffffff1673ffffffffffffffffffffffffffffffffffffffff166323b872dd3330846040518463ffffffff1660e01b815260040161066f93929190612499565b600060405180830381600087803b15801561068957600080fd5b505af115801561069d573d6000803e3d6000fd5b50505050505050610797565b600660008154809291906106bc906124ff565b919050555081600560003373ffffffffffffffffffffffffffffffffffffffff1673ffffffffffffffffffffffffffffffffffffffff16815260200190815260200160002081905550600760009054906101000a900473ffffffffffffffffffffffffffffffffffffffff1673ffffffffffffffffffffffffffffffffffffffff166323b872dd3330856040518463ffffffff1660e01b815260040161076493929190612499565b600060405180830381600087803b15801561077e57600080fd5b505af1158015610792573d6000803e3d6000fd5b505050505b6000600560003373ffffffffffffffffffffffffffffffffffffffff1673ffffffffffffffffffffffffffffffffffffffff1681526020019081526020016000205490506107e660045461111b565b6107f65780600481905550610815565b61080e61080560045483611128565b8260045461113e565b6004819055505b5050505050565b600360009054906101000a900473ffffffffffffffffffffffffffffffffffffffff1681565b6002544211158015610867575060001515600760179054906101000a900460ff161515145b156108ab576002546040517f2a35a3240000000000000000000000000000000000000000000000000000000081526004016108a29190611ebf565b60405180910390fd5b6000600560003373ffffffffffffffffffffffffffffffffffffffff1673ffffffffffffffffffffffffffffffffffffffff168152602001908152602001600020549050600760149054906101000a900460ff166109185761091761091282600454611128565b611180565b5b600760009054906101000a900473ffffffffffffffffffffffffffffffffffffffff1673ffffffffffffffffffffffffffffffffffffffff1663a9059cbb33836040518363ffffffff1660e01b8152600401610975929190612470565b600060405180830381600087803b15801561098f57600080fd5b505af11580156109a3573d6000803e3d6000fd5b505050506000600560003373ffffffffffffffffffffffffffffffffffffffff1673ffffffffffffffffffffffffffffffffffffffff1681526020019081526020016000208190555050565b6002544211158015610a14575060001515600760179054906101000a900460ff161515145b15610a58576002546040517f2a35a324000000000000000000000000000000000000000000000000000000008152600401610a4f9190611ebf565b60405180910390fd5b600760149054906101000a900460ff1615610a7257600080fd5b610ac5610ac0600454600560003373ffffffffffffffffffffffffffffffffffffffff1673ffffffffffffffffffffffffffffffffffffffff1681526020019081526020016000205461118c565b611180565b6001600760146101000a81548160ff0219169083151502179055506000600560003373ffffffffffffffffffffffffffffffffffffffff1673ffffffffffffffffffffffffffffffffffffffff168152602001908152602001600020819055507f745c90b656b4aafe296c8ca35aeacfe56cb96c90e1d320e5da643fff1051b6c033604051610b549190611fd7565b60405180910390a1565b600760009054906101000a900473ffffffffffffffffffffffffffffffffffffffff1681565b60056020528060005260406000206000915090505481565b600060608060008060006060610bdc60007f00000000000000000000000000000000000000000000000000000000000000006111a290919063ffffffff16565b610c1060017f00000000000000000000000000000000000000000000000000000000000000006111a290919063ffffffff16565b46306000801b600067ffffffffffffffff811115610c3157610c30612547565b5b604051908082528060200260200182016040528015610c5f5781602001602082028036833780820191505090505b507f0f00000000000000000000000000000000000000000000000000000000000000959493929190965096509650965096509650965090919293949596565b60606002544211158015610cc5575060001515600760179054906101000a900460ff161515145b15610d09576002546040517f2a35a324000000000000000000000000000000000000000000000000000000008152600401610d009190611ebf565b60405180910390fd5b8383838080601f016020809104026020016040519081016040528093929190818152602001838380828437600081840152601f19601f820116905080830192505050505050506000610da27f051d137ae0e1fae6e3b6559fed4442b35a85a9a39789838ad5c9ea05e7da2dce84604051602001610d87929190612576565b60405160208183030381529060405280519060200120611252565b90506000610db0828461126c565b90503373ffffffffffffffffffffffffffffffffffffffff168173ffffffffffffffffffffffffffffffffffffffff1614610e20576040517f08c379a0000000000000000000000000000000000000000000000000000000008152600401610e1790612611565b60405180910390fd5b610e2b60045461111b565b8015610e7b5750610e7a600560003373ffffffffffffffffffffffffffffffffffffffff1673ffffffffffffffffffffffffffffffffffffffff1681526020019081526020016000205461111b565b5b15610edb57610ed4610ece600454600560003373ffffffffffffffffffffffffffffffffffffffff1673ffffffffffffffffffffffffffffffffffffffff1681526020019081526020016000205461118c565b89611293565b9450610ef1565b610eee610ee860006112a7565b89611293565b94505b505050509392505050565b600760149054906101000a900460ff1681565b60608383838080601f016020809104026020016040519081016040528093929190818152602001838380828437600081840152601f19601f820116905080830192505050505050506000610faa7f051d137ae0e1fae6e3b6559fed4442b35a85a9a39789838ad5c9ea05e7da2dce84604051602001610f8f929190612576565b60405160208183030381529060405280519060200120611252565b90506000610fb8828461126c565b90503373ffffffffffffffffffffffffffffffffffffffff168173ffffffffffffffffffffffffffffffffffffffff1614611028576040517f08c379a000000000000000000000000000000000000000000000000000000000815260040161101f90612611565b60405180910390fd5b611073600560003373ffffffffffffffffffffffffffffffffffffffff1673ffffffffffffffffffffffffffffffffffffffff168152602001908152602001600020548960006112bb565b9450505050509392505050565b600760169054906101000a900460ff1681565b600760159054906101000a900460ff1681565b600760179054906101000a900460ff1681565b60006020835110156110d5576110ce836112f8565b90506110f7565b826110df836110fd565b60000190816110ee9190612811565b5060ff60001b90505b92915050565b6000819050919050565b6000611114826002611360565b9050919050565b6000808214159050919050565b6000611136838360006113e0565b905092915050565b600061114b848484611483565b90509392505050565b6000611162838360006115df565b905092915050565b6000611178838360006116a3565b905092915050565b61118981611746565b50565b600061119a83836000611792565b905092915050565b606060ff60001b83146111bf576111b883611835565b905061124c565b8180546111cb90612660565b80601f01602080910402602001604051908101604052809291908181526020018280546111f790612660565b80156112445780601f1061121957610100808354040283529160200191611244565b820191906000526020600020905b81548152906001019060200180831161122757829003601f168201915b505050505090505b92915050565b600061126561125f6118a9565b83611960565b9050919050565b600080600061127b85856119a1565b91509150611288816119f2565b819250505092915050565b606061129f8383611b58565b905092915050565b60006112b4826002611c17565b9050919050565b6060600084146112d6576112cf8484611b58565b90506112f1565b6112ee6112e88363ffffffff166112a7565b84611b58565b90505b9392505050565b600080829050601f8151111561134557826040517f305a27a900000000000000000000000000000000000000000000000000000000815260040161133c91906128e3565b60405180910390fd5b8051816113519061292a565b60001c1760001b915050919050565b600080838360f81b6040516020016113799291906129ee565b6040516020818303038152906040529050600081519050611398611e62565b60006020905060006042905081838560208801845afa6113b757600080fd5b826000600181106113cb576113ca612a16565b5b602002015160001c9550505050505092915050565b60008082156113f557600160f81b90506113fd565b600060f81b90505b60008560001b8560001b8360405160200161141a93929190612a66565b6040516020818303038152906040529050600081519050611439611e62565b60006020905060006049905081838560208801845afa61145857600080fd5b8260006001811061146c5761146b612a16565b5b602002015160001c96505050505050509392505050565b6000808360001b8360001b600060f81b6040516020016114a593929190612a66565b60405160208183030381529060405290506000815190506114c4611e62565b60006020905060006047905081838560208801845afa6114e357600080fd5b8860001b836000600181106114fb576114fa612a16565b5b6020020151600060f81b60405160200161151793929190612a66565b60405160208183030381529060405294508451935060489050611538611e62565b82818660208901855afa61154b57600080fd5b8060006001811061155f5761155e612a16565b5b60200201518860001b600060f81b60405160200161157f93929190612a66565b604051602081830303815290604052955085519450604191506115a0611e62565b83818760208a01865afa6115b357600080fd5b806000600181106115c7576115c6612a16565b5b602002015160001c9750505050505050509392505050565b60008084036115f05782905061169c565b600083036116005783905061169c565b6000821561161457600160f81b905061161c565b600060f81b90505b60008560001b8560001b8360405160200161163993929190612a66565b6040516020818303038152906040529050600081519050611658611e62565b60006020905060006047905081838560208801845afa61167757600080fd5b8260006001811061168b5761168a612a16565b5b602002015160001c96505050505050505b9392505050565b60008082156116b857600160f81b90506116c0565b600060f81b90505b60008560001b8560001b836040516020016116dd93929190612a66565b60405160208183030381529060405290506000815190506116fc611e62565b60006020905060006048905081838560208801845afa61171b57600080fd5b8260006001811061172f5761172e612a16565b5b602002015160001c96505050505050509392505050565b61174e611e62565b8160001b8160006001811061176657611765612a16565b5b6020020181815250506000602090506000604590506000808385845afa61178c57600080fd5b50505050565b60008082156117a757600160f81b90506117af565b600060f81b90505b60008560001b8560001b836040516020016117cc93929190612a66565b60405160208183030381529060405290506000815190506117eb611e62565b60006020905060006046905081838560208801845afa61180a57600080fd5b8260006001811061181e5761181d612a16565b5b602002015160001c96505050505050509392505050565b6060600061184283611c9a565b90506000602067ffffffffffffffff81111561186157611860612547565b5b6040519080825280601f01601f1916602001820160405280156118935781602001600182028036833780820191505090505b5090508181528360208201528092505050919050565b60007f000000000000000000000000000000000000000000000000000000000000000073ffffffffffffffffffffffffffffffffffffffff163073ffffffffffffffffffffffffffffffffffffffff1614801561192557507f000000000000000000000000000000000000000000000000000000000000000046145b15611952577f0000000000000000000000000000000000000000000000000000000000000000905061195d565b61195a611cea565b90505b90565b60006040517f190100000000000000000000000000000000000000000000000000000000000081528360028201528260228201526042812091505092915050565b60008060418351036119e25760008060006020860151925060408601519150606086015160001a90506119d687828585611d80565b945094505050506119eb565b60006002915091505b9250929050565b60006004811115611a0657611a05612aa3565b5b816004811115611a1957611a18612aa3565b5b0315611b555760016004811115611a3357611a32612aa3565b5b816004811115611a4657611a45612aa3565b5b03611a86576040517f08c379a0000000000000000000000000000000000000000000000000000000008152600401611a7d90612b1e565b60405180910390fd5b60026004811115611a9a57611a99612aa3565b5b816004811115611aad57611aac612aa3565b5b03611aed576040517f08c379a0000000000000000000000000000000000000000000000000000000008152600401611ae490612b8a565b60405180910390fd5b60036004811115611b0157611b00612aa3565b5b816004811115611b1457611b13612aa3565b5b03611b54576040517f08c379a0000000000000000000000000000000000000000000000000000000008152600401611b4b90612c1c565b60405180910390fd5b5b50565b6060611b62611e84565b8360001b81600060028110611b7a57611b79612a16565b5b6020020181815250508281600160028110611b9857611b97612a16565b5b602002018181525050600060409050605467ffffffffffffffff811115611bc257611bc1612547565b5b6040519080825280601f01601f191660200182016040528015611bf45781602001600182028036833780820191505090505b5092506000604390506054848385845afa611c0e57600080fd5b50505092915050565b6000808360001b8360f81b604051602001611c33929190612c3c565b6040516020818303038152906040529050600081519050611c52611e62565b6000602090506000604d905081838560208801845afa611c7157600080fd5b82600060018110611c8557611c84612a16565b5b602002015160001c9550505050505092915050565b60008060ff8360001c169050601f811115611ce1576040517fb3512b0c00000000000000000000000000000000000000000000000000000000815260040160405180910390fd5b80915050919050565b60007f8b73c3c69bb8fe3d512ecc4cf759cc79239f7b179b0ffacaa9a75d522b39400f7f00000000000000000000000000000000000000000000000000000000000000007f00000000000000000000000000000000000000000000000000000000000000004630604051602001611d65959493929190612c68565b60405160208183030381529060405280519060200120905090565b6000807f7fffffffffffffffffffffffffffffff5d576e7357a4501ddfe92f46681b20a08360001c1115611dbb576000600391509150611e59565b600060018787878760405160008152602001604052604051611de09493929190612cd7565b6020604051602081039080840390855afa158015611e02573d6000803e3d6000fd5b505050602060405103519050600073ffffffffffffffffffffffffffffffffffffffff168173ffffffffffffffffffffffffffffffffffffffff1603611e5057600060019250925050611e59565b80600092509250505b94509492505050565b6040518060200160405280600190602082028036833780820191505090505090565b6040518060400160405280600290602082028036833780820191505090505090565b6000819050919050565b611eb981611ea6565b82525050565b6000602082019050611ed46000830184611eb0565b92915050565b600080fd5b600080fd5b600080fd5b600080fd5b600080fd5b60008083601f840112611f0957611f08611ee4565b5b8235905067ffffffffffffffff811115611f2657611f25611ee9565b5b602083019150836001820283011115611f4257611f41611eee565b5b9250929050565b60008060208385031215611f6057611f5f611eda565b5b600083013567ffffffffffffffff811115611f7e57611f7d611edf565b5b611f8a85828601611ef3565b92509250509250929050565b600073ffffffffffffffffffffffffffffffffffffffff82169050919050565b6000611fc182611f96565b9050919050565b611fd181611fb6565b82525050565b6000602082019050611fec6000830184611fc8565b92915050565b6000819050919050565b600061201761201261200d84611f96565b611ff2565b611f96565b9050919050565b600061202982611ffc565b9050919050565b600061203b8261201e565b9050919050565b61204b81612030565b82525050565b60006020820190506120666000830184612042565b92915050565b61207581611fb6565b811461208057600080fd5b50565b6000813590506120928161206c565b92915050565b6000602082840312156120ae576120ad611eda565b5b60006120bc84828501612083565b91505092915050565b60006120e06120db6120d684611ea6565b611ff2565b611ea6565b9050919050565b6120f0816120c5565b82525050565b600060208201905061210b60008301846120e7565b92915050565b60007fff0000000000000000000000000000000000000000000000000000000000000082169050919050565b61214681612111565b82525050565b600081519050919050565b600082825260208201905092915050565b60005b8381101561218657808201518184015260208101905061216b565b60008484015250505050565b6000601f19601f8301169050919050565b60006121ae8261214c565b6121b88185612157565b93506121c8818560208601612168565b6121d181612192565b840191505092915050565b6000819050919050565b6121ef816121dc565b82525050565b600081519050919050565b600082825260208201905092915050565b6000819050602082019050919050565b61222a81611ea6565b82525050565b600061223c8383612221565b60208301905092915050565b6000602082019050919050565b6000612260826121f5565b61226a8185612200565b935061227583612211565b8060005b838110156122a657815161228d8882612230565b975061229883612248565b925050600181019050612279565b5085935050505092915050565b600060e0820190506122c8600083018a61213d565b81810360208301526122da81896121a3565b905081810360408301526122ee81886121a3565b90506122fd6060830187611eb0565b61230a6080830186611fc8565b61231760a08301856121e6565b81810360c08301526123298184612255565b905098975050505050505050565b612340816121dc565b811461234b57600080fd5b50565b60008135905061235d81612337565b92915050565b60008060006040848603121561237c5761237b611eda565b5b600061238a8682870161234e565b935050602084013567ffffffffffffffff8111156123ab576123aa611edf565b5b6123b786828701611ef3565b92509250509250925092565b600081519050919050565b600082825260208201905092915050565b60006123ea826123c3565b6123f481856123ce565b9350612404818560208601612168565b61240d81612192565b840191505092915050565b6000602082019050818103600083015261243281846123df565b905092915050565b60008115159050919050565b61244f8161243a565b82525050565b600060208201905061246a6000830184612446565b92915050565b60006040820190506124856000830185611fc8565b61249260208301846120e7565b9392505050565b60006060820190506124ae6000830186611fc8565b6124bb6020830185611fc8565b6124c860408301846120e7565b949350505050565b7f4e487b7100000000000000000000000000000000000000000000000000000000600052601160045260246000fd5b600061250a82611ea6565b91507fffffffffffffffffffffffffffffffffffffffffffffffffffffffffffffffff820361253c5761253b6124d0565b5b600182019050919050565b7f4e487b7100000000000000000000000000000000000000000000000000000000600052604160045260246000fd5b600060408201905061258b60008301856121e6565b61259860208301846121e6565b9392505050565b7f454950373132207369676e657220616e64207472616e73616374696f6e20736960008201527f676e657220646f206e6f74206d61746368000000000000000000000000000000602082015250565b60006125fb603183612157565b91506126068261259f565b604082019050919050565b6000602082019050818103600083015261262a816125ee565b9050919050565b7f4e487b7100000000000000000000000000000000000000000000000000000000600052602260045260246000fd5b6000600282049050600182168061267857607f821691505b60208210810361268b5761268a612631565b5b50919050565b60008190508160005260206000209050919050565b60006020601f8301049050919050565b600082821b905092915050565b6000600883026126f37fffffffffffffffffffffffffffffffffffffffffffffffffffffffffffffffff826126b6565b6126fd86836126b6565b95508019841693508086168417925050509392505050565b6000819050919050565b612728836120c5565b61273c61273482612715565b8484546126c3565b825550505050565b600090565b612751612744565b61275c81848461271f565b505050565b5b8181101561278057612775600082612749565b600181019050612762565b5050565b601f8211156127c55761279681612691565b61279f846126a6565b810160208510156127ae578190505b6127c26127ba856126a6565b830182612761565b50505b505050565b600082821c905092915050565b60006127e8600019846008026127ca565b1980831691505092915050565b600061280183836127d7565b9150826002028217905092915050565b61281a8261214c565b67ffffffffffffffff81111561283357612832612547565b5b61283d8254612660565b612848828285612784565b600060209050601f83116001811461287b5760008415612869578287015190505b61287385826127f5565b8655506128db565b601f19841661288986612691565b60005b828110156128b15784890151825560018201915060208501945060208101905061288c565b868310156128ce57848901516128ca601f8916826127d7565b8355505b6001600288020188555050505b505050505050565b600060208201905081810360008301526128fd81846121a3565b905092915050565b6000819050602082019050919050565b600061292182516121dc565b80915050919050565b6000612935826123c3565b8261293f84612905565b905061294a81612915565b9250602082101561298a576129857fffffffffffffffffffffffffffffffffffffffffffffffffffffffffffffffff836020036008026126b6565b831692505b5050919050565b600081905092915050565b60006129a7826123c3565b6129b18185612991565b93506129c1818560208601612168565b80840191505092915050565b6000819050919050565b6129e86129e382612111565b6129cd565b82525050565b60006129fa828561299c565b9150612a0682846129d7565b6001820191508190509392505050565b7f4e487b7100000000000000000000000000000000000000000000000000000000600052603260045260246000fd5b6000819050919050565b612a60612a5b826121dc565b612a45565b82525050565b6000612a728286612a4f565b602082019150612a828285612a4f565b602082019150612a9282846129d7565b600182019150819050949350505050565b7f4e487b7100000000000000000000000000000000000000000000000000000000600052602160045260246000fd5b7f45434453413a20696e76616c6964207369676e61747572650000000000000000600082015250565b6000612b08601883612157565b9150612b1382612ad2565b602082019050919050565b60006020820190508181036000830152612b3781612afb565b9050919050565b7f45434453413a20696e76616c6964207369676e6174757265206c656e67746800600082015250565b6000612b74601f83612157565b9150612b7f82612b3e565b602082019050919050565b60006020820190508181036000830152612ba381612b67565b9050919050565b7f45434453413a20696e76616c6964207369676e6174757265202773272076616c60008201527f7565000000000000000000000000000000000000000000000000000000000000602082015250565b6000612c06602283612157565b9150612c1182612baa565b604082019050919050565b60006020820190508181036000830152612c3581612bf9565b9050919050565b6000612c488285612a4f565b602082019150612c5882846129d7565b6001820191508190509392505050565b600060a082019050612c7d60008301886121e6565b612c8a60208301876121e6565b612c9760408301866121e6565b612ca46060830185611eb0565b612cb16080830184611fc8565b9695505050505050565b600060ff82169050919050565b612cd181612cbb565b82525050565b6000608082019050612cec60008301876121e6565b612cf96020830186612cc8565b612d0660408301856121e6565b612d1360608301846121e6565b9594505050505056fea2646970667358221220e5703dd9189e936ac3554c1071730b522d1c793939466fe1e5aabdca6419dd3264736f6c63430008120033",
    "linkReferences": {},
    "deployedLinkReferences": {}
}